:100000000C942A000C9447000C9447000C94470071
:100010000C9447000C9447000C9447000C94470044
:100020000C9447000C9447000C9447000C94470034
:100030000C9447000C9449000C9472000C944700F7
:100040000C9447000C9447000C9447000C94470014
:100050000C94470011241FBECFE5D8E0DEBFCDBF12
:1000600010E0A0E6B0E0E2E6F6E002C005900D92F6
:10007000A636B107D9F711E0A6E6B0E001C01D929F
:10008000AC3DB107E1F70E9470020C942F030C9471
:1000900000001F920F920FB60F9211242F938F938F
:1000A0009F93EF93FF939BB12CB1E091D701EF5F4A
:1000B0008091D801E81711F482E008C0892F887177
:1000C000E093D701F0E0EB52FF4F20838093D901FA
:1000D000FF91EF919F918F912F910F900FBE0F90F5
:1000E0001F9018951F920F920FB60F9211248F93A5
:1000F0009F93EF93FF939091D5018091D60198172C
:1001000061F0E091D601EF5FEF73E093D601F0E08C
:10011000EB56FF4F80818CB901C05598FF91EF914C
:100120009F918F910F900FBE0F901F901895109276
:10013000D7011092D80108959C011092D501109218
:10014000D6011092D7011092D80197FF03C082E028
:100150008BB93F7730BD29B988E98AB986E880BD77
:1001600008959091D7018091D801981719F420E053
:1001700031E011C0E091D801EF5FE093D801F0E0E9
:10018000EB52FF4F30812091D901922F80E0AC01DA
:10019000430F511D9A01C90108955D9BFECF8CB993
:1001A00008955D9BFECF8CB90895FC0104C05D9B52
:1001B000FECF31968CB980818823C9F7089503C09A
:1001C0005D9BFECF2CB9FC01019624912223C1F73F
:1001D0000895662311F0C09A01C0C098C198BB9AD7
:1001E000BC9ABD9ABE9AC698C598C498C39887FD14
:1001F000C69A86FDC59A85FDC49A84FDC39AC29AA3
:1002000000C0C298C698C598C498C39883FDC69A82
:1002100082FDC59A81FDC49A80FDC39AC29A00C02E
:10022000C298C39AC49AC59AC69A0895882311F0B1
:10023000C09A01C0C098C19ABB98BC98BD98BE989E
:10024000C29A00C0B39B02C080E101C080E0B499B3
:100250008062B5998064B6998068C29800C0C29ADD
:1002600000C0B3998160B4998260B5998460B699F1
:100270008860C298089580E00E94160187FDFBCF38
:1002800082E090E00197F1F780E00E941601089566
:100290001F93182F0E943B01812F60E00E94E9000C
:1002A0001F9108951F93182F0E943B01812F61E039
:1002B0000E94E9001F910895662311F4805801C03F
:1002C00080540E94480108950E943B0190E00895E7
:1002D00081E00E944801089582E00E94480108954B
:1002E0001F93182F0E943B011A3049F4803410F0FC
:1002F00080E001C080E480580E94480104C0812F42
:1003000061E00E94E9001F910895CF93DF93EC0113
:1003100002C00E94700189918823D9F7DF91CF91A3
:100320000895CF93DF93EC0102C00E947001FE019B
:10033000219684918823C9F7DF91CF9108951F9367
:10034000182FB89AB99ABA9ABB9ABC9ABD9ABE9A13
:1003500080E89EE30197F1F7C49AC39AC29A00C05D
:10036000C29880E893E10197F1F7C29A00C0C29861
:1003700080E490E0FC013197F1F7C29A00C0C29886
:10038000FC013197F1F7C398C29A00C0C298019757
:10039000F1F788E20E94480188E00E9448010E942B
:1003A000680186E00E944801812F0E9448011F9148
:1003B000089521E030E002C0220F331F8A95E2F752
:1003C00089B390E082239323892BD1F31FBC82E071
:1003D0008EBD1DBC1CBC89B390E082239323892B66
:1003E00029F08CB59DB581569A4EA8F38CB59DB574
:1003F0009093DB018093DA011EBC0895949A959A3C
:100400009298939A9698979A0895949A959A929A10
:100410009398969A97980895949A9298939A969802
:1004200097980895959A929893989698979A089580
:1004300012BA0895D89A81E3982F9A95F1F7D8982F
:100440008A95F1F70895D99A81E3982F9A95F1F753
:10045000D9988A95F1F708958A9A8B9A8C9A8D9AF1
:100460008E9A8F9A0895D09AD298D19AD398089557
:10047000809190008823C1F40E941A0282E00E94B9
:10048000D9018091DA019091DB016AE370E00E946A
:100490001B03709392006093910081E08093900021
:1004A00080E090E90197F1F7809190008130B9F4F4
:1004B0000E94230283E00E94D9018091DA01909189
:1004C000DB016AE370E00E941B0370939400609369
:1004D00093001092900080E090E90197F1F7089561
:1004E0000F931F93CF93DF938FE590E00E949C00C2
:1004F00080E690E00E94D5000E9433020E942C0208
:10050000C0E7D1E000E010E90E943802209191009C
:1005100030919200C9010197059780F48091930072
:10052000909194000A9750F00E940C0280ED97E0A1
:10053000FE013197F1F70197D9F713C0C90106976A
:10054000049790F480919300909194000A9760F042
:100550000E940C0284EF91E0FE013197F1F70197C0
:10056000D9F70E94120263C0C9010A97029748F4A2
:1005700080919300909194000A9718F00E94FE01D8
:1005800056C0C9010C97049790F480919300909104
:1005900094000A9760F00E94120284EF91E0FE013D
:1005A0003197F1F70197D9F70E940C0240C0203132
:1005B0003105C8F080919300909194000A9798F0CB
:1005C0000E94120280EA9FE0FE013197F1F7019745
:1005D000D9F70E940C0288EE93E0FE013197F1F703
:1005E0000197D9F724C080919300909194000B97C4
:1005F000F0F412BA88EE93E0FE013197F1F701971B
:10060000D9F70E94050280ED97E0FE013197F1F7DE
:100610000197D9F70E940C0280E49FE1FE01319717
:10062000F1F70197D9F78CE291E00E941202C8011C
:100630000197F1F769CFAA1BBB1B51E107C0AA1FA5
:10064000BB1FA617B70710F0A61BB70B881F991F73
:100650005A95A9F780959095BC01CD010895F8941D
:02066000FFCFCA
:0606620073746172740064
:00000001FF
