:100000000C942A000C9447000C9447000C94470071
:100010000C9447000C9447000C9447000C94470044
:100020000C9447000C9447000C9447000C94470034
:100030000C9447000C9449000C9472000C944700F7
:100040000C9447000C9447000C9447000C94470014
:100050000C94470011241FBECFE5D8E0DEBFCDBF12
:1000600010E0A0E6B0E0E4EDF6E002C005900D92ED
:10007000AA38B107D9F712E0AAE8B0E001C01D9292
:10008000A030B107E1F70E9470020C9468030C9451
:1000900000001F920F920FB60F9211242F938F938F
:1000A0009F93EF93FF939BB12CB1E091FB01EF5F26
:1000B0008091FC01E81711F482E008C0892F887153
:1000C000E093FB01F0E0E750FF4F20838093FD01B8
:1000D000FF91EF919F918F912F910F900FBE0F90F5
:1000E0001F9018951F920F920FB60F9211248F93A5
:1000F0009F93EF93FF939091F9018091FA019817E4
:1001000061F0E091FA01EF5FEF73E093FA01F0E044
:10011000E754FF4F80818CB901C05598FF91EF9152
:100120009F918F910F900FBE0F901F901895109276
:10013000FB011092FC0108959C011092F9011092AC
:10014000FA011092FB011092FC0197FF03C082E0BC
:100150008BB93F7730BD29B988E98AB986E880BD77
:1001600008959091FB018091FC01981719F420E00B
:1001700031E011C0E091FC01EF5FE093FC01F0E0A1
:10018000E750FF4F30812091FD01922F80E0AC01BC
:10019000430F511D9A01C90108955D9BFECF8CB993
:1001A00008955D9BFECF8CB90895FC0104C05D9B52
:1001B000FECF31968CB980818823C9F7089503C09A
:1001C0005D9BFECF2CB9FC01019624912223C1F73F
:1001D0000895662311F0C09A01C0C098C198BB9AD7
:1001E000BC9ABD9ABE9AC698C598C498C39887FD14
:1001F000C69A86FDC59A85FDC49A84FDC39AC29AA3
:1002000000C0C298C698C598C498C39883FDC69A82
:1002100082FDC59A81FDC49A80FDC39AC29A00C02E
:10022000C298C39AC49AC59AC69A0895882311F0B1
:10023000C09A01C0C098C19ABB98BC98BD98BE989E
:10024000C29A00C0B39B02C080E101C080E0B499B3
:100250008062B5998064B6998068C29800C0C29ADD
:1002600000C0B3998160B4998260B5998460B699F1
:100270008860C298089580E00E94160187FDFBCF38
:1002800082E090E00197F1F780E00E941601089566
:100290001F93182F0E943B01812F60E00E94E9000C
:1002A0001F9108951F93182F0E943B01812F61E039
:1002B0000E94E9001F910895662311F4805801C03F
:1002C00080540E94480108950E943B0190E00895E7
:1002D00081E00E944801089582E00E94480108954B
:1002E0001F93182F0E943B011A3049F4803410F0FC
:1002F00080E001C080E480580E94480104C0812F42
:1003000061E00E94E9001F910895CF93DF93EC0113
:1003100002C00E94700189918823D9F7DF91CF91A3
:100320000895CF93DF93EC0102C00E947001FE019B
:10033000219684918823C9F7DF91CF9108951F9367
:10034000182FB89AB99ABA9ABB9ABC9ABD9ABE9A13
:1003500080E89EE30197F1F7C49AC39AC29A00C05D
:10036000C29880E893E10197F1F7C29A00C0C29861
:1003700080E490E0FC013197F1F7C29A00C0C29886
:10038000FC013197F1F7C398C29A00C0C298019757
:10039000F1F788E20E94480188E00E9448010E942B
:1003A000680186E00E944801812F0E9448011F9148
:1003B000089521E030E002C0220F331F8A95E2F752
:1003C00089B390E082239323892BD1F31FBC82E071
:1003D0008EBD1DBC1CBC89B390E082239323892B66
:1003E00029F08CB59DB581569A4EA8F38CB59DB574
:1003F0009093FF018093FE011EBC0895949A959AF4
:10040000929A9398969A97980895949A959A929812
:10041000939A9698979A0895949A929A9398969800
:1004200097980895959A92989398969A9798089580
:1004300012BA0895D89A8AE1982F9A95F1F7D89828
:100440008A95F1F70895D99A8AE1982F9A95F1F74C
:10045000D9988A95F1F708958A9A8B9A8C9A8D9AF1
:100460008E9A8F9A0895D09AD298D19AD398089557
:100470008091B4008823C1F40E941A0282E00E9495
:10048000D9018091FE019091FF016AE370E00E9422
:1004900054037093B6006093B50081E08093B4007C
:1004A00080E29EE40197F1F78091B4008130B9F4C5
:1004B0000E94230283E00E94D9018091FE01909165
:1004C000FF016AE370E00E9454037093B8006093E8
:1004D000B7001092B40080E29EE40197F1F708950E
:1004E0000F931F93CF93DF9383E390E00E949C00D0
:1004F00080E690E00E94D5000E9433020E942C0208
:100500008CE00E949F010E94680184E060E00E94EC
:100510005C0186E690E00E94850183E061E00E9434
:100520005C0180E790E00E94850180E395E728EC7C
:1005300030E0F9013197F1F70197D9F70E9468018E
:1005400086E060E00E945C018BE790E00E948501FC
:1005500084E061E00E945C0180E890E00E948501F7
:1005600080E49CE928EC30E0F9013197F1F701973C
:10057000D9F7C8ECD0E000E21EE40E9438022091D6
:10058000B5003091B600C9010197059780F48091BC
:10059000B7009091B8000A9750F00E940C0280EDCD
:1005A00097E0FE013197F1F70197D9F713C0C90120
:1005B0000697049790F48091B7009091B8000A973D
:1005C00060F00E940C0284EF91E0FE013197F1F798
:1005D0000197D9F70E94120263C0C9010A970297D6
:1005E00048F48091B7009091B8000A9718F00E94E3
:1005F000FE0156C0C9010C97049790F48091B70092
:100600009091B8000A9760F00E94120284EF91E086
:10061000FE013197F1F70197D9F70E940C0240C013
:1006200020313105C8F08091B7009091B8000A9749
:1006300098F00E94120280EA9FE0FE013197F1F7E4
:100640000197D9F70E940C0288EE93E0FE013197E2
:10065000F1F70197D9F724C08091B7009091B800C5
:100660000B97F0F412BA88EE93E0FE013197F1F7A0
:100670000197D9F70E94050280ED97E0FE013197BE
:10068000F1F70197D9F70E940C0280E49FE1FE0187
:100690003197F1F70197D9F78CE291E00E941202AD
:1006A000C8010197F1F769CFAA1BBB1B51E107C035
:1006B000AA1FBB1FA617B70710F0A61BB70B881FF2
:1006C000991F5A95A9F780959095BC01CD01089581
:0406D000F894FFCFCC
:1006D400737461727400456475626F746978200084
:1006E400496E6E6F766174696F6E0057616C6C0051
:0A06F400466F6C6C6F7765720000B2
:00000001FF
